:020000040800F2
:1000000000000220513B000845380008473800082E
:10001000493800084B3800084D380008000000003F
:100020000000000000000000000000004F38000841
:100030005138000800000000533800085538000807
:10004000A13B0008A13B0008A13B0008A13B000820
:10005000A13B0008A13B0008A13B0008A13B000810
:10006000A13B0008A13B0008A13B0008A13B000800
:10007000A13B0008A13B0008A13B0008A13B0008F0
:10008000A13B0008A13B0008A13B0008A13B0008E0
:10009000A13B0008A13B0008A13B0008A13B0008D0
:1000A000A13B0008A13B0008A13B0008A13B0008C0
:1000B000A13B0008A13B0008A13B0008A13B0008B0
:1000C000A13B0008A13B0008A13B0008A13B0008A0
:1000D000A13B0008A13B0008A13B0008A13B000890
:1000E000A13B0008A13B0008A13B0008A13B000880
:1000F000A13B0008A13B0008A13B0008A13B000870
:10010000A13B0008A13B0008A13B0008A13B00085F
:10011000A13B0008A13B0008A13B0008A13B00084F
:10012000A13B0008A13B0008A13B0008A13B00083F
:10013000A13B0008A13B0008A13B0008A13B00082F
:10014000A13B0008A13B0008A13B0008653800085E
:10015000A13B0008A13B0008A13B0008A13B00080F
:10016000A13B0008A13B0008A13B0008A13B0008FF
:10017000A13B0008A13B0008A13B000800000000D3
:08018000A13B0008A13B0008AF
:1001880010B5054C237833B9044B13B10448AFF3C9
:1001980000800123237010BD9000002000000000A3
:1001A800A43D000808B5034B1BB103490348AFF34E
:1001B800008008BD0000000094000020A43D000855
:1001C80053B94AB9002908BF00281CBF4FF0FF31B6
:1001D8004FF0FF3000F07AB9ADF1080C6DE904CEAC
:1001E80000F006F8DDF804E0DDE9022304B070470A
:1001F8002DE9F0478C460D460446089E002B51D148
:100208008A4217466DD9B2FA82FEBEF1000F0BD0B2
:10021800CEF1200C01FA0EF520FA0CFC02FA0EF7CA
:100228004CEA050C00FA0EF44FEA174A250CBCFB01
:10023800FAF81FFA87F90AFB18CC45EA0C4508FBBF
:1002480009F3AB420AD9ED1908F1FF3280F0238196
:10025800AB4240F22081A8F102083D44ED1AA4B255
:10026800B5FBFAF00AFB105544EA054400FB09F90E
:10027800A14509D9E41900F1FF3380F00A81A145AD
:1002880040F2078102383C44A4EB090440EA0840E4
:100298000021002E61D024FA0EF40023346073602C
:1002A800BDE8F0878B4207D9002E54D0002186E89C
:1002B80021000846BDE8F087B3FA83F1002940F031
:1002C8008E80AB4202D3824200F2FA80841A65EB38
:1002D80003050120AC46002E3FD086E81010BDE88B
:1002E800F08712B90127B7FBF2F7B7FA87FEBEF11C
:1002F800000F34D1EB1B3A0C1FFA87FC0121B3FB2A
:10030800F2F8250C02FB183345EA03450CFB08F309
:10031800AB4207D9ED1908F1FF3002D2AB4200F227
:10032800D1808046ED1AA3B2B5FBF2F002FB10555E
:1003380043EA05440CFB00FCA44507D9E41900F185
:10034800FF3302D2A44500F2B8801846A4EB0C048F
:1003580040EA08409DE731463046BDE8F087CEF1D7
:10036800200405FA0EF307FA0EF720FA04F83A0CFF
:1003780025FA04F448EA0308B4FBF2F14FEA1845F9
:1003880002FB11441FFA87FC45EA044501FB0CF304
:10039800AB4200FA0EF409D9ED1901F1FF3080F0F3
:1003A8008A80AB4240F2878002393D44EB1A1FFA3B
:1003B80088F5B3FBF2F002FB103345EA034500FB76
:1003C8000CF3AB4207D9ED1900F1FF386FD2AB42FD
:1003D8006DD902383D44EB1A40EA01418FE7C1F17B
:1003E800200722FA07F88B4005FA01F448EA0303CC
:1003F80020FA07FE4FEA134CFD404EEA040EB5FB07
:10040800FCF94FEA1E440CFB19551FFA83F844EA1D
:10041800054509FB08F4AC4202FA01F200FA01FAB8
:1004280008D9ED1809F1FF3043D2AC4241D9A9F1FE
:1004380002091D442D1B1FFA8EFEB5FBFCF00CFBB8
:1004480010554EEA054400FB08F8A04507D9E41802
:1004580000F1FF3529D2A04527D902381C4440EACB
:100468000940A4EB0804A0FB02894C45C6464D464A
:1004780015D312D056B1BAEB0E0364EB050404FA97
:1004880007F7CB401F43CC40376074600021BDE8BC
:10049800F0871846F8E69046E0E6C245EAD2B8EB9F
:1004A800020E69EB03050138E4E72846D7E7404622
:1004B80091E78146BEE7014678E702383C4445E7C4
:1004C800084608E7A8F102083D442BE7704700BF3B
:1004D80038B50E4A0E4B054618784FF47A73B3FBBD
:1004E800F0F31068B0FBF3F000F0A8F8044658B930
:1004F8000F2D09D8024629464FF0FF3000F05EF86C
:10050800044B20461D6038BD012038BD280000205E
:10051800000000200400002008B50B4B1A6842F4C4
:1005280000721A601A6842F480621A601A6842F40B
:1005380080721A60032000F02FF80020FFF7C8FF30
:1005480003F0B2F8002008BD003C0240034A044B07
:1005580011681B780B441360704700BFBC00002073
:1005680000000020014B1868704700BFBC00002045
:1005780038B50446FFF7F6FF631C1CBF054B1B7814
:10058800054618BFE418FFF7EDFF401B8442FAD870
:1005980038BD00BF00000020074AD36823F4E06399
:1005A8001B041B0C43F0BF63000243F4003300F448
:1005B800E0600343D360704700ED00E0174B30B5AF
:1005C800DC68C4F30224C4F10703251D042B28BFEB
:1005D8000423062D4FF0010505FA03F303F1FF3359
:1005E8008CBF033C00241940A14005FA04F4013CE7
:1005F8002240002842EA01024FEA0212AFBF00F18E
:10060800604000F00F00064BD2B2A5BF00F5614074
:10061800D2B21A5480F8002330BD00BF00ED00E0CC
:1006280014ED00E04209012300F01F0003FA00F076
:10063800014B43F82200704700E100E00138B0F1B7
:10064800807F0AD2064B074A5860F02182F82310AF
:100658000020072298601A6070470120704700BF89
:1006680010E000E000ED00E0044B1A6804280CBF1D
:1006780042F0040222F004021A60704710E000E021
:10068800704708B5FFF7FCFF08BD00002DE9F04FE3
:1006980085B00B68DFF8AC81684ADFF8AC9101934C
:1006A80000234FF0010E019C0EFA03FE0EEA040629
:1006B800B64540F0AE804C6824F01007022F16D1E2
:1006C8004FEAD30A00EB8A0A03F0070BDAF8205046
:1006D8004FEA8B0B4FF00F0C0CFA0BFC25EA0C0CB5
:1006E8000D6905FA0BF545EA0C05CAF820504FEAE2
:1006F800430A0325D0F800B005FA0AF5ED4304F0E3
:10070800030C0BEA050B0CFA0AFC013F4CEA0B0C34
:10071800012FC0F800C011D8876807EA050BCF6819
:1007280007FA0AFC4CEA0B078760476827EA0E0EAF
:10073800C4F300179F4047EA0E074760C7683D406B
:100748008F6807FA0AF73D43C560E50061D54FF0A9
:10075800000BCDF80CB0D8F84470394D47F48047F9
:10076800C8F84470D8F8447007F480470397039F8B
:1007780023F0030707F1804707F59C3703F0030CC4
:10078800D7F808A04FEA8C0C4FF00F0E0EFA0CFEAB
:10079800A8422AEA0E0E43D005F58065A84241D04A
:1007A80005F58065A8423FD005F58065A8423DD093
:1007B80005F58065A8423BD048453BD005F5006566
:1007C800A84239D005F58065A84214BF0825072539
:1007D80005FA0CF545EA0E05BD601568F74314F4F3
:1007E800803F0CBF3D4035431560556814F4003F09
:1007F8000CBF3D4035435560956814F4801F0CBF0D
:100808003D4035439560D568A40254BF3D4035430B
:10081800D5600133102B7FF444AF05B0BDE8F08FED
:100828005D46D5E70125D3E70225D1E70325CFE7C4
:100838000425CDE70525CBE70625C9E7003C01409F
:1008480000000240003802400014024003691942C7
:1008580014BF0120002070470AB181617047090464
:10086800FBE743695940416170472DE9FF41044660
:1008780090F890029DF828609DF82C70BDF830E043
:10088800012821D0012084F89002282000FB014093
:1008980002F07F0CD50980F8383080F8391080F8DC
:1008A8003F7080F83AC080F83B5080F83C60A0F870
:1008B80040E08DE8C040206801F0CCFB002384F8BC
:1008C800903204B0BDE8F0810220FAE790F8903247
:1008D800012B10B5044609D0012380F89032006836
:1008E80001F071FD002084F8900210BD022010BDB7
:1008F8002DE9F04107468AB0A0B303233C4680F8AF
:10090800913203F005F854F8100B01F04EFA0FCCB1
:100918006D460FC50FCC0FC594E8030085E80300AA
:1009280007F104083E4698E80E00386801F0FDF922
:1009380056F8100B012101F03EFA0FCE6D460FC597
:100948000FCE0FC594E8030085E8030098E80E0071
:10095800386801F0ABFA012387F8913200200AB019
:10096800BDE8F0810120FAE7F0B5282606FB01066C
:100978009DF814E0069DBDF81C409DF8207086F88F
:100988003B2086F83F30BEF1000F0ED14FF0030E2A
:10099800022B86F842E04AD0734555D0012B2FD15F
:1009A800282303FB0103002255E04FF0020C86F8D0
:1009B80042C0032B24D801A656F823F0D509000815
:1009C800A9090008370A0008510A0008BEF1010FFA
:1009D80016D1AAB924B9282303FB010383F851E0EF
:1009E800282303FB010292F85160F6B982F84260AD
:1009F80003FB010393F85C20022A01D083F83D70C1
:100A0800282606FB0103002283F8391019465D6485
:100A18009C6483F85C20DA6483F85D203831027CBA
:100A28000068BDE8F04001F081BB0226DEE728231C
:100A380003FB010392B993F851601EB983F8422071
:100A48002823D5E70222F9E7282303FB01032AB963
:100A580093F8516036B983F84220D1E793F85020D3
:100A6800002AF8D00222F6E72DE9F04F066887B091
:100A78000446304601F0FEF9012840F0EC80206879
:100A880001F0F4F9002800F0E680206801F0EEF9A2
:100A9800810248BF2368206844BF4FF400125A619E
:100AA80001F0E4F9C20248BF2368206844BF4FF44C
:100AB80080125A6101F0DAF9430148BF23682068BF
:100AC80044BF4FF080625A6101F0D0F9870748BFF0
:100AD8002368206844BF02225A6101F0C7F98500E3
:100AE80010D5D6F8403423F02E03C6F840342046FB
:100AF80002F050FF0121206801F04AFA23684FF004
:100B080000525A61206801F0B1F9C00140D525684A
:100B1800D5F840340493D5F840340593059B23F069
:100B28002E030593049B99070DD5049BDA0706D578
:100B3800AB6923F00053AB61204602F027FF059B09
:100B480043F002030593049B1B0717D5059B43F04D
:100B580008030593049B5F0740F18880A169022977
:100B68007CD1049B206803F4C023B3F5802F18BF01
:100B7800012101F00DFA204602F008FF049B9806B7
:100B880042BF059B43F020030593059BC5F84034FD
:100B9800206801F06BF9010705D5204602F0F2FE46
:100BA800236808225A61206801F060F9820114D58F
:100BB800206801F0F9FB06F5A063029001934FF05D
:100BC800000B4FF0010A28274FF00209A3689B4544
:100BD80058D323684FF000725A61206801F046F933
:100BE800C30638D52568AB6923F01003AB612F6ABB
:100BF800C7F34343022B29D1C7F30A18B8F1000FF2
:100C080024D007F00F07282606FB0746716CE9B1C8
:100C18004246284601F01CF9736C4344736405F599
:100C2800A065F36C05EB47154344F3642A69B74B99
:100C380013405BB12B6823F0804343F000432B60E3
:100C480096F8503083F0010386F850302268936993
:100C580043F01003936107B0BDE8F08FE368032BFE
:100C680004BF4EF66022C5F8042484E7D5F8403462
:100C7800226823F02E03C5F84034936943F00053EB
:100C880093617BE7029A0AFA0BF3134200F086801D
:100C9800019B20681B6813F4004F5FFA8BF500F086
:100CA8000A816A0100F5A06802EB0806B1684B07E3
:100CB80013D50421B160F16841F00201F160B16817
:100CC8008B053DD5F368206843F00203F36029469D
:100CD80001F079FB4FF400732BE1B168890602D566
:100CE8002021B160EBE7B1680B0713D5F1680392D7
:100CF80041F00201F16007FB05414FF0050E81F854
:100D08005DE01021B1600821B160294601F05BFB6C
:100D1800039AD4E7B1684905D1D5F168039241F047
:100D28000201F160294601F04EFB1021B16007FB7A
:100D38000541082081F85D004FF48061B160E7E764
:100D4800B168C80740D5216949B107FB054E30692C
:100D5800DEF84810C0F31200091ACEF84C1007FB51
:100D680005410020886581F85DA0C6F808A091F8C3
:100D78003F0010F0FD0F17D1F368206843F002031D
:100D8800F360294601F01FFB1023B36007FB0545FC
:100D980095F8503083F0010385F85030019B2033DB
:100DA8000BF1010B019311E70328EFD152F808006A
:100DB80040F0005042F8080081F85CA00122294662
:100DC800204602F0EBFDE1E7B168890735D5F16807
:100DD80007FB054021F00201F16090F85D10012940
:100DE8000CD180F85C1007FB0543C6F8089093F80F
:100DF8005C202946204602F0D1FDCFE70529F0D036
:100E0800062901D00829EED107FB0541886D032882
:100E180000F1010388BF00208B6583BF886504202B
:100E280081F85C0081F85C9052F8081021F080414C
:100E380041F0004142F80810D5E7B1680B0611D51A
:100E4800F368206843F00203F36007FB0543294673
:100E58009A6D01329A65062283F85D2001F0B3FA93
:100E6800802366E0B168C80698D507FB054191F86C
:100E78003F10032909D1F1682068039241F002016B
:100E8800F160294601F09FFA039A07FB0545032103
:100E980085F85D101021B16095F83F1011F0FD0F35
:100EA8007FF47CAF52F8081021F0804141F00041F6
:100EB80042F8081072E700F5A06606EB4516B3681D
:100EC800590706D50423B360F36843F00203F360BF
:100ED80064E7B36813F020031AD02023B36007FB3C
:100EE800054393F83D20012A7FF458AF042283F884
:100EF8005D20F268039342F00202F260294601F095
:100F080062FA039B83F85C9048E700BF0000F81F73
:100F1800B26852060FD507FB054204219365F368B2
:100F280082F85D1043F00203F360294601F04BFAA2
:100F38004023B36032E7B26812F4007205D0F36858
:100F480043F00203F3602946C2E6B368D90710D517
:100F580007FB054329469A65F268039342F00202AB
:100F6800F26001F030FA039BC6F808A083F85DA090
:100F780014E7B3681A070ED50823B360F36843F083
:100F88000203F360294601F01EFA07FB0545052315
:100F980085F85D3002E7B368DB0611D507FB05432A
:100FA80000229A65F268039342F00202F260294631
:100FB80001F009FA039B032283F85D201023B8E7A8
:100FC800B36819060CD5F36843F00203F3602946A9
:100FD80007FB054501F0F7F9062385F85D303FE783
:100FE800B16811F480610FD0F36843F00203F36035
:100FF800294601F0E8F91023B3604FF48063B36029
:1010080007FB05450823C3E7B3689A077FF5C6AE13
:10101800F36823F00203F36007FB054393F85D20B0
:10102800012A0DD183F85C2093F83F20022A7FF42F
:10103800DAAE93F8512082F0010283F85120D2E60B
:10104800032A02D183F85C90CDE6042A04D183F800
:101058005C9083F83D10C6E6052A02D183F85C202F
:10106800C1E6062A02D0082A7FF4BDAE07FB054375
:101078009A6D511C032A9965E4D900229A650422C5
:10108800ECE700BF38B590F89032012B04460DD03C
:10109800012580F89052006800F081FE29462068FA
:1010A80000F0ACFF002084F8900238BD022038BD63
:1010B80090F89032012B10B5044609D0012380F82E
:1010C8009032006801F0A4FA002084F8900210BD64
:1010D800022010BD006800F078BF282303FB01013F
:1010E80091F85C007047282303FB0101C86C704726
:1010F800006800F0AABF006800F09EBF70B5044603
:10110800002862D090F83D3003F0FF021BB980F848
:101118003C2002F011FB22682D4E2E4D242384F82A
:101128003D30136823F00103136000F0EBFC6368A3
:101138002268B0FBF5F5B34284BF4FF4967169435A
:10114800556091BF691C4FF47A75B1FBF5F1013117
:10115800B342116221D85B00B0FBF3F0C0F30B037C
:10116800032B98BF0420216AE369D0610B43136005
:10117800E16823690B439360A16963690B43D360FA
:10118800136843F00103136000202023206484F8CF
:101198003D30206384F83E0070BDA16849B903EB77
:1011A8004303B0FBF3F0C0F30B0363B140F400401A
:1011B800D9E719214B43B0FBF3F0C0F30B0313B18C
:1011C80040F44040CFE70120CDE7012070BD00BFCB
:1011D800A086010040420F0070477047704700002A
:1011E80070B5044600283FD00225414B80F8415095
:1011F800436302F0CBFA2268D36923F47B6323F0BC
:101208000F03D36163691562022BD56935D0E36892
:10121800002BA36814BF202610260120202B98BF7E
:10122800760000F017FD23696169B3F5007F1FD1CF
:10123800E3680A22D3B1B300B0FBF3F353430A22A5
:10124800B3FBF1F30533B3FBF2F303F0010212022F
:10125800C3F34F03991EFD2911D9636C43F01003A2
:1012680063642046FFF7BAFF012070BDF300E3E78F
:101278000A23B0FBF6F04343E1E70022EAE7134311
:1012880022692068666813430362E268A36813430F
:10129800A26913439BB246F400611943226A89B2DA
:1012A8000D43012AC5611CD1124A62631249134ACF
:1012B800884218BF4FF0402236F40070D16921F4FB
:1012C8007B6121F00F01D1614FF002011162D169F8
:1012D8000CBF4FF48070002043F4006303430B43BA
:1012E800D36100200123606484F8413070BD00BFE1
:1012F80009130008151400080038004000340040A5
:101308001FB503689A68019290F84120042A0446A0
:101318003AD1019AD10719D55A68520616D5C26A28
:10132800911CC162D9681180428E013A92B24286FC
:10133800428E92B252B95A6822F060021204120C1C
:101348005A60012380F84130FFF747FF019B590697
:101358001AD523685A68920616D55A6822F0600290
:101368001204120C5A6000220292DA6802929B68F8
:101378000293029B012384F84130636C43F002031B
:1013880063642046FFF72AFF94F84130032B3AD1D3
:10139800019B9B071BD522685368180617D5636AFB
:1013A800991C1B886162D360638D013B9BB2638586
:1013B800638D9BB25BB9536823F0A0031B041B0C1D
:1013C8005360012384F841302046FFF705FF019B55
:1013D800190718D523685A68920614D55A6822F056
:1013E800A0021204120C5A60002203929B68039315
:1013F800039B012384F84130636C43F00403636466
:101408002046FFF7EBFE04B010BD70471FB5036818
:1014180092499A680092924A8B4218BF4FF0402234
:10142800044691680191D96901F44071B1F5007FD2
:1014380004D0D96911F4407F40F09780009A920750
:101448001DD55A6810061AD5626A911C1288616205
:10145800DA60628D013A92B26285628D92B272B997
:101468005A6822F0A0021204120C5A60638E9BB2D2
:101478002BB9012384F841302046FFF7C6FF019BB2
:10148800D90722D5754A2168754B914218BF4FF08C
:1014980040235A68520618D5E26A911CE162D9685D
:1014A8001180628E013A92B26286628E92B262B9FD
:1014B8005A6822F060025A60638D9BB22BB90123EF
:1014C80084F841302046FFF7A0FF019B580624D539
:1014D80062492368624A8B4218BF4FF04022516824
:1014E80089061AD5516821F0600151605A6822F0C6
:1014F800A0021204120C5A6000220292DA680292C8
:101508009B680293029B012384F84130636C43F08B
:10151800020363642046FFF761FE009B1B0722D588
:1015280023685A6890061ED55A684C4922F0A002D2
:101538001204120C5A604A4A8B4218BF4FF04022DC
:10154800516821F060015160002203929B68039367
:10155800039B012384F84130636C43F00403636404
:101568002046FFF73BFE04B010BD019B99071AD532
:1015780053681B0617D5436A991C1B884162D360C0
:10158800438D013B9BB24385438D9BB25BB9536846
:1015980023F0A0035360438E9BB223B9012380F844
:1015A8004130FFF732FF009BD8071ED522685368E9
:1015B80059061AD5E36A991CE162D1681980638ECD
:1015C800013B9BB26386638E9BB273B9536823F069
:1015D80060031B041B0C5360638D9BB22BB9012362
:1015E80084F841302046FFF710FF009B5A061DD5AE
:1015F800226853689B0619D55368184923F060037D
:101608001B041B0C5360164B8A4218BF4FF0402333
:1016180020465A6822F0A0025A60012384F841301B
:10162800636C43F002036364FFF7D8FD019B18075E
:1016380099D50A4922680A4B8A4218BF4FF04023BD
:10164800596889068FD5596821F0A00159605368F7
:1016580023F060031B041B0C53607AE7003800403A
:10166800003400402DE9F341044618B9012002B0C6
:10167800BDE8F0810368DD0710D42368980758D4C3
:1016880023681A0700F19A8023685B0700F1B88085
:10169800A269002A40F019810020E8E7A64B9A6861
:1016A80002F00C02042A07D09A6802F00C02082AF9
:1016B8000AD15B68590207D59F4B1B689A03DCD592
:1016C8006368002BD9D1D1E763689B4DB3F5803FA0
:1016D80011D12B6843F480332B60FEF743FF964DFE
:1016E80006462B689B03C8D4FEF73CFF801B642882
:1016F800F7D90320BBE7B3F5A02F04D12B6843F437
:1017080080232B60E5E72A6822F480322A602A6861
:1017180022F480222A60002BDFD1FEF723FF064641
:101728002B689F03A9D5FEF71DFF801B6428F7D9F6
:10173800DFE7814B9A6812F00C0F07D09A6802F025
:101748000C02082A11D15B685E020ED47A4B1A6823
:10175800950702D5E268012A88D11A68216922F022
:10176800F80242EAC1021A608AE7E268734BB2B132
:1017780001221A60FEF7F6FE6F4D06462B689807A1
:1017880007D52B68226923F0F80343EAC2032B60CC
:1017980076E7FEF7E7FE801B0228EFD9A9E71A6073
:1017A800FEF7E0FE644D06462B6899077FF568AFA3
:1017B800FEF7D8FE801B0228F6D99AE76269604BCB
:1017C8007AB101221A60FEF7CDFE5B4D06466B6FBB
:1017D8009F073FF559AFFEF7C5FE801B0228F6D9D3
:1017E80087E71A60FEF7BEFE534D06466B6F9807F3
:1017F8007FF54AAFFEF7B6FE801B0228F6D978E7D8
:101808004D4B1A6C12F0805228D101921A6C42F09A
:1018180080521A641B6C03F080530193019B0126CC
:10182800484D2B68D9051BD5A368434D012B27D1FB
:101838002B6F43F001032B67FEF794FE3E4D0746DE
:1018480041F288382B6F9B0739D5002E3FF420AF23
:10185800394A136C23F08053136419E70026DFE735
:101868002B6843F480732B60FEF77CFE07462B68D9
:10187800DA05D9D4FEF776FEC01B0228F7D938E777
:10188800052B04D12B6F43F004032B67D0E72A6F95
:1018980022F001022A672A6F22F004022A67002B2D
:1018A800CAD1FEF75FFE41F2883807462B6F9807CA
:1018B800CBD5FEF757FEC01B4045F7D919E7FEF711
:1018C80051FEC01B4045BDD913E71B4DAB6803F063
:1018D8000C03082B3FF4CAAE1B4E0023022A3360C8
:1018E80034D1FEF73FFE07462B6899011ED4226AC1
:1018F800E3691343626A43EA8213E26A43EA0263D2
:10190800A26A0D4C5208013A43EA02436B60012374
:101918003360FEF727FE054623689A013FF5BCAE03
:10192800FEF720FE401B0228F6D9E2E6FEF71AFE73
:10193800C01B0228D8D9DCE6003802400000474224
:10194800800E47420070004060004742FEF70AFEE2
:1019580004462B689B017FF59FAEFEF703FE001B34
:101968000228F6D9C5E600BF134908B58B6803F00D
:101978000C03042B03D0082B03D0104808BD1048D3
:1019880008BD4A684B68496813F4800314BF0C48C3
:101998000A48C1F3881118BF002302F03F02A1FBD7
:1019A8000001FEF70DFC044B5B68C3F301430133F0
:1019B8005B00B0FBF3F008BD003802400024F400DF
:1019C80000127A002DE9F0410D46044610B90120B5
:1019D800BDE8F081444B1A6802F00F028A4228D30E
:1019E80021688F072DD4C80740D43F4B1A6802F0EE
:1019F8000F02954266D3226851076CD4130707D5A6
:101A08003A4A2169936823F4604343EAC103936027
:101A1800FFF7AAFF354B364A9B68C3F30313D35C21
:101A2800D840344B18600020FEF752FD0020BDE876
:101A3800F081CAB21A701B6803F00F039942C6D12D
:101A4800CEE72A4B11F0040F1EBF9A6842F4E05209
:101A58009A600E0742BF9A6842F460429A609A6898
:101A6800A06822F0F00202439A60BCE762681F4B4C
:101A7800012A1DD11B6813F4003FA8D01B4EB36880
:101A880023F003031343B360FEF76CFD41F288387B
:101A98000746B368626803F00C03B3EB820FA4D067
:101AA800FEF760FDC01B4045F3D90320BDE8F08177
:101AB800911E01291B6802D813F0007FDDE713F09F
:101AC800020FDAE7EAB21A701B6803F00F039D42AF
:101AD8007FF47DAF8FE70549E0688B6823F4E05316
:101AE80003438B608AE700BF003C02400038024095
:101AF800C03D000828000020014B1868704700BF4F
:101B080028000020044B054A9B68C3F38223D35C5A
:101B1800034A1068D840704700380240D03D00089A
:101B280028000020036813F0050FF7B5054605D116
:101B3800286810F0020028D103B0F0BD414C424E95
:101B480000232360FEF70EFD074633681B0115D4FA
:101B5800AB686A681B0743EA8213C6F8843001231E
:101B68002360FEF7FFFC384C064623681801DFD4D3
:101B7800FEF7F8FC801B0228F7D904E0FEF7F2FC18
:101B8800C01B0228E1D90320D6E7002301932E4B7E
:101B98002E4C1A6C42F080521A641B6C03F080536E
:101BA8000193019B236843F480732360FEF7DAFCFA
:101BB80006462368D9051BD5234C236F13F44073BD
:101BC8001CD1EB6803F44072B2F5407F1E4A34D151
:101BD800916823F0704021F4F81120F4407001431B
:101BE8009160116FC3F30B030B4313670020A3E746
:101BF800FEF7B8FC801B0228DBD9C4E7EA6802F4C8
:101C080040729342DDD0236F114A0121116023F401
:101C18004073002111602367236FDA07D1D5FEF7DF
:101C2800A1FC41F288370646236F9B07C9D4FEF70B
:101C380099FC801BB842F7D9A5E7916821F4F811FF
:101C4800CEE700BF680047420038024000700040FD
:101C5800400E4742012820D1114B9A6812F4000225
:101C680004D0012A0F4818BF002070475A680C4951
:101C780058685302D1F884204CBF0B4B0B4B00F033
:101C88003F00B3FBF0F3D1F88400C2F3881253434A
:101C9800C0F30270B3FBF0F070470020704700BF3C
:101CA800003802400080BB0000127A000024F400D3
:101CB80010B50446002836D00023836290F85130CE
:101CC80003F0FF021BB980F8502001F091FD216854
:101CD800A068A269022384F851300B6823F04003FE
:101CE8000B6063680343E06803432069034360694A
:101CF8000343E0690343206A0343A06A034302F4F1
:101D0800007003430B60120C636A02F004021A436A
:101D18004A60CB6923F40063CB610020012360652E
:101D280084F8513010BD012010BD84B038B505AD20
:101D380085E80E000A9B012B044626D1836B23F409
:101D480080338363C36823F4840323F04003C360B0
:101D5800C36823F44013C360119B012B02BFC368FF
:101D680043F48013C36000F089F8089B012B07D166
:101D7800A36843F00603A360A36843F02003A360AD
:101D8800BDE83840002004B07047C36843F0400302
:101D9800C36000F073F84FF48033A363E5E783680A
:101DA80043F00103836000207047836823F0010338
:101DB80083600020704708B5C368012923F0C04339
:101DC800C36008D1C36843F00053C3603220FEF7F4
:101DD800CFFB002008BD0029F8D1C36843F0804339
:101DE800C360F3E7890141F02001064A0161013A25
:101DF80005D0036913F02003F9D118467047032072
:101E0800704700BF410D03001023064A0361013AE1
:101E180005D0036913F01003F9D118467047032061
:101E2800704700BF410D030010B59DF808404CB93C
:101E3800033300F5805023F0030300EB02320B4418
:101E4800994201D1002010BD51F8040B1060F7E74A
:101E5800033222F003020A4400F58050914201D176
:101E680008467047036841F8043BF7E74269806910
:101E780010407047406900F0010070470A4B013B71
:101E880001D1032070470269002AF8DA0369064A7B
:101E980043F001030361013AF3D0036913F001032E
:101EA800F9D11846704700BF410D030084B038B51A
:101EB800044605A880E80E000023C4F8003EA36B82
:101EC80023F48023A363A36B23F40023A363A36BEE
:101ED80043F40013A363079B032BD4F800343CD1CD
:101EE800B4F1A04F39D043F00403C4F800341021F2
:101EF8002046FFF777FF2046FFF786FF0023069965
:101F080004F5A0624FF0FF301D468B422AD1012113
:101F1800204600F073F8C820FEF72AFB0023A361CF
:101F2800B4F1A04F4FF0FF33636120D18023636287
:101F380003F5C003A362134BC4F80031089B1BB917
:101F4800A36943F01003A361A2690F4B1343A36174
:101F5800BDE83840002004B0704723F00403C4F8FB
:101F68000034C4E790600133D5602032CDE74FF4E8
:101F78000073636203F18073A362044BC4F80031F9
:101F8800DCE700BFE0004000080020A30003E000F9
:101F9800D0F8003423F0030310B5C0F80034D0F8AB
:101FA800004401F003032343012900F58062C0F8CF
:101FB800003404D14BF680335360002010BD022951
:101FC80004BF41F270735360F7E713B5D0F840349B
:101FD8000193019B23F02E030193019B43F480732B
:101FE8000446C0F840340A20FEF7C2FA019B0020DC
:101FF80023F48073C4F8403402B010BD82B0D0F826
:1020080040340193019B23F02E030193019BDA04D2
:1020180006D4012902BF019B43F48053C0F8403421
:10202800019BDB0405D521B9019B23F48053C0F83B
:102038004034002002B0704782B0D0F84034019399
:102048000198C0F3414002B0704700F58060806895
:1020580080B27047F0B500F5A06404EB41149DF818
:1020680018504FF0FF36A66057B2032D14D8DFE89A
:1020780005F00253024D40F29D46002FE66004DA57
:10208800E66846F48076E66006E0B0F1A04F03D03B
:10209800E66846F06006E660D0F818C4012606FA3D
:1020A80001F141EA0C01C0F8181481699B05D202BC
:1020B80041F0007103F0FE5302F4F04281611A43CB
:1020C800BDF81C109DF81430002FB4BF4FF4004623
:1020D8000026C1F30A01022B4FEA854342EA0102B6
:1020E80003F4402343EA020300F5806E43EA060343
:1020F8000CBF4FF40030002003432360032D02BFC0
:10210800236843F0005323600020F0BD40F29D6631
:10211800002FE660C0DAB3E740F22526E660002F1C
:10212800BEBFE66846F4C076E660B5E780B58AB01B
:1021380002AFF860B9601346FB7100237B77002378
:102148007B830023FB834FF480733B8300237B61F5
:10215800FB68B3F1A04F2BD0BB681B79002B27D1AC
:10216800FB79002B0BD1BB685B79012B07D1BB68CE
:102178005B781946F86800F00FFA00230DE1FB7947
:10218800012B15D1BB685B785A01FB68134403F532
:10219800A0631946BB685B785A01FB68134403F5D2
:1021A800A063DB6823F06003CB60BB6800225A7130
:1021B800BB681B69002B19D0BB681B69BA681289F8
:1021C8001344013BBA681289B3FBF2F3FB83FA8B21
:1021D8003B8B9A420CD93B8BFB83FB8BBA681289E9
:1021E80002FB03F31A46BB681A6101E00123FB8373
:1021F800BB68DB78002B07D0FB8BBA68128902FB1F
:1022080003F31A46BB681A61BB685B785A01FB681E
:10221800134403F5A0631946BB681B69C3F3120294
:10222800FB8BDB0418465F4B03401A43BB689B7A61
:102238005B0703F0C04313430B61FB79002B0AD003
:10224800BB685B785A01FB68134403F5A0631A4620
:10225800BB68DB685361FB6803F580639B6803F028
:102268000103002B0CBF01230023DBB27B77BB6883
:102278005B785A01FB68134403F5A0631946BB68F1
:102288005B785A01FB68134403F5A0631B6823F0CD
:1022980000530B60BB685B785A01FB68134403F575
:1022A800A0631946BB685B785A01FB68134403F5C1
:1022B800A0631B687A7F520713430B60BB685B7887
:1022C8005A01FB68134403F5A0631B687B617B69B3
:1022D80023F080437B617B6943F000437B61BB68EB
:1022E8005B785A01FB68134403F5A0631A467B69BF
:1022F8001360FB79002B4FD1BB68DB78002B4BD1E7
:10230800BB681B69002B47D0BB68DB79032B31D82E
:1023180001A252F823F000BF31230008552300081A
:102328003123000855230008BB681B6903339B0849
:102338007B837A8BFB68DB6A9BB29A421CD9FB6869
:102348009B6943F02002FB689A6115E0BB681B6932
:1023580003339B087B837A8BFB6803F580631B69D7
:102368009BB29A420AD9FB689B6943F08062FB687A
:102378009A6103E000BF02E000BF00E000BFBB6855
:10238800D968BB685A78BB681B6998B20023009368
:102398000346F868FFF748FD002318462037BD4676
:1023A80080BD00BF0000F81F80B483B000AF786024
:1023B8007B6803F580635B699BB218460C37BD46A2
:1023C8005DF8047B704780B485B000AF78600B4639
:1023D800FB700023FB60FB785A017B68134403F50C
:1023E800A0631B689B0C03F00303002B0BD0FB7846
:1023F8005A017B68134403F5A0631B689B0C03F028
:102408000303022B60D1FB785A017B68134403F560
:10241800A0631946FB785A017B68134403F5A0634F
:102428001B6843F080430B607B68DB6A03F47F031F
:10243800002B35D1FB785A017B68134403F5A06360
:102448001946FB785A017B68134403F5A0631B689F
:1024580023F000430B60FB785A017B68134403F5B3
:10246800A0631946FB785A017B68134403F5A063FF
:102478001B6843F000430B60FB680133FB60FB689B
:10248800B3F57A7F1ED8FB785A017B68134403F5AD
:10249800A0631B6803F00043B3F1004FECD074E075
:1024A800FB785A017B68134403F5A0631946FB784F
:1024B8005A017B68134403F5A0631B6843F000438B
:1024C8000B6062E000BF60E0FB785A017B68134450
:1024D80003F5A0631946FB785A017B68134403F59A
:1024E800A0631B6843F080430B607B6803F580633F
:1024F8001B699BB2002B35D1FB785A017B681344CA
:1025080003F5A0631946FB785A017B68134403F569
:10251800A0631B6823F000430B60FB785A017B68BB
:10252800134403F5A0631946FB785A017B681344EA
:1025380003F5A0631B6843F000430B60FB6801339D
:10254800FB60FB68B3F57A7F1ED8FB785A017B687D
:10255800134403F5A0631B6803F00043B3F1004F75
:10256800ECD012E0FB785A017B68134403F5A063B2
:102578001946FB785A017B68134403F5A0631B686E
:1025880043F000430B6000E000BF002318461437F7
:10259800BD465DF8047B704780B485B000AF7860B5
:1025A8000B46FB700123FB730023BB60FB785A01C9
:1025B8007B68134403F5A0631A46FB7BDB041946CA
:1025C800124B0B4043F000431361FB785A017B68C0
:1025D800134403F5A0631B68BB60BB6823F080430A
:1025E800BB60BB6843F00043BB60FB785A017B6863
:1025F800134403F5A0631A46BB681360002318460A
:102608001437BD465DF8047B704700BF0000F81F13
:1026180080B586B000AF786000233B617868FFF72B
:10262800C4FB10217868FFF7DDFB7868FFF7ECFB47
:102638000023FB751FE0FB7D5A017B68134403F5FB
:10264800A0631B68FB60FB6843F08043FB60FB688A
:1026580023F00043FB60FB6823F40043FB60FB7D31
:102668005A017B68134403F5A0631A46FB6813609C
:10267800FB7D0133FB75FB7D0F2BDCD90023FB753C
:1026880034E0FB7D5A017B68134403F5A0631B68A3
:10269800FB60FB6843F08043FB60FB6843F000434A
:1026A800FB60FB6823F40043FB60FB7D5A017B68F9
:1026B800134403F5A0631A46FB6813603B690133B2
:1026C8003B613B69B3F57A7F0CD8FB7D5A017B6887
:1026D800134403F5A0631B6803F00043B3F1004FF4
:1026E800ECD000E000BFFB7D0133FB75FB7D0F2BB9
:1026F800C7D97B6803F580631A464FF0FF335361EF
:102708007B684FF0FF325A617868FFF748FB002377
:1027180018461837BD4680BD0020704738B5D0F838
:102728007433DC692178054639B100F0EDFD217874
:10273800284600F006FE00232370217B41B128467D
:1027480000F0E2FD217B284600F0FBFD0023237307
:10275800617B41B1284600F0D7FD617B284600F037
:10276800F0FD00236373D5F87433D86928B101F0FC
:1027780041FAD5F874330022DA61002038BDF0B58B
:10278800022285B001231146054600F0B4F9FF285E
:10279800064602D1022005B0F0BD0146284600F0E9
:1027A800A1F95020D5F8747301F01CFA1A2303FB21
:1027B8000656F86196F848331A0642BF4370B6F8D1
:1027C8004A33438104464178284600F0A2FD014679
:1027D8002070608902900320019095F81D0395F8F8
:1027E8001C3362780090284600F07FFD0022217893
:1027F800284601F08EF900231A460A21284600F0DF
:102808007AF9FF28C6D01A2303FB005103FB0050B6
:1028180091F8482390F85033B1F84A1312F0800F1A
:102828000DBFA273E2736183218313F0800F08BF89
:10283800A373B0F85223A17B18BFE373284614BFD3
:102848006283228300F065FDE17B6073284600F017
:1028580060FD2073208B0290022695F81D0395F8E1
:102868001C33A27B617B01960090284600F03DFD59
:10287800608B029095F81D0395F81C33E27B217B51
:10288800019600900026284600F02FFD3246617B15
:1028980084F84C60284601F03CF93246217B2846F2
:1028A80001F037F9304676E738B5D0F87433D9698E
:1028B800A1230374212343740722002343828382C4
:1028C800C2824031044600F097FA054620B9D4F890
:1028D800C433022120469847284638BD70477047C0
:1028E8007047D0F8743373B5DC6994F84C300546FA
:1028F800042B3DD8DFE803F003061742A8000020A8
:1029080002B070BD2123A16C0374202343740722F5
:10291800002343828382C28200F06EFA50BB0223F6
:1029280084F84C3024E0A123037421234374072244
:10293800002343828382C28204F1400100F05CFAE2
:10294800C0B9626CA36C84F84C0002F0FF115A689D
:1029580002F0FF1291420BD194F845105A79914236
:1029680006D1226C1B689A4202D12846FFF7B8FFAD
:102978000120C5E70128FBD00423D1E794F84D10C6
:10298800012923D0022930D0D5F87433DE6996F8AE
:102998004E30032B47D0042BEAD1317B284601F077
:1029A800A7F80128E4D1317B284601F05DF8B36A25
:1029B80082B29342104640D0718B91423DD29B1A0D
:1029C800B362336A18443062032333E0606A228BAF
:1029D800637B0091904298BF82B2E169284600F07B
:1029E8005DFC022384F84D30CEE7617B01F080F86E
:1029F800012815D1636A228B934283BF9B1A6362B5
:102A0800E36900238ABF9B186362E361636A0BB1C1
:102A18000123E7E784F84D302846FFF75FFFB3E767
:102A28000228B1D1F4E7337B728B316A284600F073
:102A38004CFC042386F84E309AE7002386F84E3083
:102A48002846FFF74CFF93E7002100F0E1FB002840
:102A58008ED184F84C008BE700F55F7300F56E7239
:102A6800002143F8041B9342FBD100F58E7200F558
:102A78004771002302F8013B9142FBD1012240211A
:102A8800037043708270C0F8B83302768171437660
:102A980080F81C3380F81D230020704738B50D4698
:102AA800044680B1002380F8BC23C0F87433C0F812
:102AB8007833FFF7D1FF0DB1C4F8C453204600F0B6
:102AC8006FFF002038BD022038BD49B1D0F87833F7
:102AD80033B90122C0F87823C0F87013184670473C
:102AE8000220704790F836338B4286BF80F81F1358
:102AF80000200220704730B5002490F841538D42E1
:102B080001D0FF290DD190F84253954201D0FF2AF8
:102B180007D190F843539D4201D1E0B230BDFF2B5D
:102B2800FBD00134022C00F11A00E6D1FF2030BDA1
:102B380010B5044600F060FF0121204600F0DCFFDC
:102B4800002010BD30B587B002238DF81730037808
:102B580004460A2B17D8DFE813F00B0016001900FB
:102B6800010116004900E900B800C100CA00F900D7
:102B780090F81E333BB101230370C82000F0D8FF42
:102B8800204600F063FF002007B030BD642000F04D
:102B9800CFFF204600F04CFF0523237084F81D0367
:102BA8000021204600F0B5FB80216071204600F02E
:102BB800B0FBA27994F81C332071014602920025DB
:102BC80094F81D23009201958022204600F08DFB89
:102BD800A279029294F81D23009294F81C3361792B
:102BE80001952A46204600F080FBCCE74378072B66
:102BF800C9D8DFE803F004141C2D343C48550821DB
:102C080000F0D3F905460028BDD1012394F8272305
:102C18006370217994F81C33A2710292D0E71221D3
:102C280000F0C3F90028AED102236370ABE701219D
:102C380000F0D2FA05460028A5D1022000F078FF5E
:102C480003220123627084F81C332179A279E4E716
:102C5800092100F003FA002895D10423E5E7B0F82C
:102C6800341300F0FBF900288DD10523DDE790F837
:102C78002E1331B1FF2300F58E7200F086FA00287A
:102C880081D10623D1E790F82F1339B1FF2300F53E
:102C98008E7200F07AFA00287FF475AF0723C4E734
:102CA80090F8301339B1FF2300F58E7200F06DFAF9
:102CB80000287FF468AF002384F81F3394F8313379
:102CC800012B09D0072323705DE7D0F8C433002B0C
:102CD8003FF459AF012198470823F4E790F83713D8
:102CE80000F088FA00287FF44EAF0923EBE7D0F80C
:102CF8007833002B3FF447AF0023C0F87433D0F883
:102D0800703390F841231979914208BFC0F87433A1
:102D1800D0F87433C3B19B689847A8B906232370C9
:102D28000321D4F8C433204698472CE7D0F87433ED
:102D380053B11B6998478DF817009DF81730002B81
:102D48007FF421AF0A23BEE70C23BCE7D0F8743325
:102D5800002B3FF418AF5B69984714E7FFF77CFE38
:102D6800D4F87433002B3FF40EAFDB682046984745
:102D78000023C4F8743306E7C0F8B8137047D0F8D6
:102D8800B8230132C0F8B82302780A2A04D1D0F84F
:102D980074330BB19B6918477047027808B54AB974
:102DA800D0F8C433012280F81E230BB104219847C0
:102DB800002008BD0278012A04BF02220270F7E74A
:102DC80010B5044600F026FE2179204600F0B9FA35
:102DD8006179204600F0B5FA002384F81E33D4F850
:102DE800C43313B1052120469847204600F004FE5D
:102DF80003232370002010BD37B5044680780128CE
:102E080003D0022808D0012004E00223A160A28197
:102E18002076A37003B030BD237E013B0A2BF2D885
:102E2800DFE803F0060F26313D4A606B7C8992008B
:102E3800627904F11001204600F0F8F902232376A4
:102E4800E1E76179204600F053FE012823D1E28AA8
:102E580094F9103032B1002B02DA03232376D9E734
:102E68000523ECE7002B01DA0923E8E70723E6E767
:102E7800D4F8B833E381A2892379A168204600F009
:102E8800FDF90423DBE72179204600F031FE012813
:102E9800EAD005281AD00428B5D10B23CFE701259D
:102EA8006379A2890095A168204600F0D0F9D4F88A
:102EB800B833E3810623C2E76179204600F018FEA3
:102EC8000128D3D0052803D10C2323760320A1E7BA
:102ED8000228C5D0042896D10B2323760123A3709A
:102EE800022097E7002223791146204600F0C6F910
:102EF800D4F8B833E3810823A1E72179204600F00C
:102F0800F7FD012804D101230020A370207681E772
:102F18000428C2D005287FF476AFD7E70022012520
:102F2800637900951146204600F091F9D4F8B8333A
:102F3800E3810A2383E76179204600F0D9FD01285F
:102F4800E1D00228A7D18FE7637E0133DBB2022BE1
:102F5800637606D8204600F05DFD01202076A0703B
:102F680058E7D4F8C43306212046984700236376EF
:102F7800B4E730B48478BDF80850012C10D161F062
:102F88007F04047402F47F44B4F5407F42824FF01A
:102F980006010CBF40F20942002241748282C582B8
:102FA8002A46194630BCFFF727BF37B500F58E73A0
:102FB8000D4600914FF4807200210446FFF7D9FFB7
:102FC800002849D194F81C3184F8203394F81D3135
:102FD80084F8213394F81F2194F81E3103EB02235F
:102FE800A4F8223394F8203184F8243394F821315A
:102FF80084F8253394F8223184F82633082D94F880
:10300800233184F8273327D994F8252194F82431DB
:1030180003EB0223A4F8283394F8272194F82631E7
:1030280003EB0223A4F82A3394F8292194F82831D1
:1030380003EB0223A4F82C3394F82A3184F82E33B6
:1030480094F82B3184F82F3394F82C3184F83033EA
:1030580094F82D3184F8313303B030BD2DE9F347AE
:1030680000F11C050F4600912B464FF40072002119
:103078000446FFF77EFF68BB237F84F83233637F03
:1030880084F83333A67FE37F06EB032694F82030D9
:1030980084F8363394F8213084F8373394F82230A2
:1030A80084F8383394F8233084F83933B6B294F876
:1030B8002430A4F83463092F84F83A330AD9224615
:1030C8002B46864609214FF01A08BEF1020F01D09F
:1030D8008E4202D802B0BDE8F0871D782B442944FF
:1030E8005D78042D89B2F0D11D7882F83C535D7863
:1030F80082F83D539D7882F83E53DD7882F83F533D
:103108001D7982F840535D7982F841539D7982F8A0
:103118004253DD7982F843531D7A82F8445308FB01
:103128000EF9002592F84073BD4203DB0EF1010E43
:103138001A32CAE78E42F9D91F783B4439445F787E
:10314800052F89B2EED16F1C09EBC705254493F80A
:1031580000C085F83EC393F801C085F83FC393F8D3
:1031680002C085F840C393F803C085F841C393F8BB
:1031780005A093F804C00CEB0A2CA5F842C393F8F9
:1031880006C085F844C37DB2CCE7F7B500F58E7567
:1031980014461F46009341F440722B460021064610
:1031A800FFF7E7FE78B996F81D31032B0BD196F897
:1031B8001C31023BBB42A8BF3B469BB2024693422E
:1031C80003D80023237003B0F0BDA9180232897810
:1031D80004F8011B92B2F2E78378012B06D1002391
:1031E80005220374427441828382C38200221146FD
:1031F800FFF702BE8378012B06D10023092203744E
:10320800427441828382C38200221146FFF7F4BDD3
:103218008378012B06D1022243740023027443826F
:103228008182C38200221146FFF7E6BD30B585B022
:103238000024154608230293019103940094234621
:103248002246294600F03AFC204605B030BD30B58C
:1032580090F81D5385B0002D1C469DF82030029231
:1032680018BF0023039301230093002301911A46FA
:10327800214600F023FC002005B030BD30B585B0F4
:1032880000241D46029201220191039400922346D4
:10329800294600F013FC204605B030BD30B590F843
:1032A8001D5385B0002D1C469DF82030029218BF92
:1032B8000023039301230191009300220223214656
:1032C80000F0FCFB002005B030BD30B585B01D46D0
:1032D80000240292012201910394009202232946BC
:1032E80000F0ECFB204605B030BD1FB5BDF820400E
:1032F80002949DF81C4001949DF81840009400F039
:10330800B7FB002004B010BD08B500F0C9FB0020D1
:1033180008BD30B5002300F55F7454F8045B2D0434
:10332800DAB208D400EB830041F4004192B2C0F84D
:103338007C13D0B230BD01330B2BEED14FF6FF72A8
:10334800F7E70A299FBF00EB8100D0F87C33C3F36D
:103358000E03C0F87C3300207047000030B599B0E8
:103368002D4B002101911A6C42F080521A641B6C9B
:1033780003F080530193019B284B02911A6842F491
:1033880080421A601B6803F480430293029B4FF447
:1033980080330D934FF480031393082314934FF451
:1033A800A8730224012515930CA807230C951294E1
:1033B80016941793FEF756F900B1FEE70F2307930B
:1033C8004FF4A05309900A9305214FF4805307A89E
:1033D80008940B93FEF7F6FA00B1FEE7C02303A8A2
:1033E800059403950493FEF79DFB044600B1FEE7A0
:1033F800FEF782FB4FF47A73B0FBF3F0FDF71EF98A
:103408000420FDF731F9224621464FF0FF30FDF741
:10341800D5F819B030BD00BF003802400070004038
:103428002DE9F0418CB00024FDF776F8FFF796FF00
:103438008D4B01941A6B8D488D4F42F010021A6320
:103448001A6B02F010020192019A02941A6B42F070
:1034580004021A631A6B02F004020292029A03949D
:103468001A6B42F080021A631A6B02F08002039210
:10347800039A04941A6B42F001021A631A6B02F061
:1034880001020492049A05941A6B42F002021A632C
:103498001A6B02F002020592059A06941A6B42F022
:1034A80008021A631B6B03F00803069322460821DF
:1034B800069BFDF7D1F9012211466E48FDF7CCF9BC
:1034C80022464FF210016C48FDF7C6F9012508267F
:1034D80007A966480796089509940A94FDF7D6F84F
:1034E80007A96448079508954FF0050809940A94B8
:1034F800FDF7CCF8079607A902265E4808960994B6
:103508000A94CDF82C80FDF7C1F807A95B48079508
:1035180008970994FDF7BAF8042307A958480793B0
:1035280008940994FDF7B2F84FF4806307A954484A
:103538000793089609940A94CDF82C80FDF7A6F80D
:103548004FF2100307A94C480793089509940A9469
:10355800FDF79CF8202307A9474807930894099486
:10356800FDF794F84148079607A908970994454D2F
:10357800FDF78CF84448454B846080E828004FF4F8
:103588008043C460036144618461C4610462FDF7DF
:10359800B5FD00B1FEE73E4B3E4A98604FF400741B
:1035A80083E81400D8603C4A9861D86118621846CC
:1035B8001C615A61FDF714FE00B1FEE7374B38492C
:1035C80098604FF4827283E80600D86018615861E9
:1035D800D8611862586298620A2218469C61DA62B9
:1035E800FEF766FB00B1FEE700F076F9214E224CAB
:1035F800012500F087F94FF400513046FDF726F910
:10360800A8B1A5B14FF400412046FDF72AF94FF4BF
:1036180080412046FDF725F94FF400512046FDF77B
:1036280020F94FF480512046FDF71BF9002585F05D
:1036380001012046FDF70AF90028DAD020464FF4A8
:103648000041FDF70EF920464FF48041FDF709F9D6
:1036580020464FF40051FDF704F94FF480512046FD
:10366800FDF7FFF8C4E700BF003802400010024031
:103678000000121000080240000C02400000024046
:1036880000040240A0860100C00000200054004051
:103698006C010020003C004000770100140100206C
:1036A80000300140FEE7000013B5224B00240094CF
:1036B8005A6C42F480425A645A6C02F48042009276
:1036C800009A01941A6C42F080521A641B6C03F041
:1036D800805301930720019BFCF75EFF2246214699
:1036E8006FF00B00FCF76AFF224621466FF00A00D4
:1036F800FCF764FF224621466FF00900FCF75EFFE5
:10370800224621466FF00400FCF758FF2246214666
:103718006FF00300FCF752FF224621466FF00100CC
:10372800FCF74CFF224621464FF0FF30FCF746FFDE
:1037380002B010BD0038024010B50268104B9A4222
:1037480086B01AD14FF41073019312230293012308
:103758000393042300240DEB03010A480593049402
:10376800FCF794FF084B00941A6C42F400121A6498
:103778001B6C03F400130093009B06B010BD00BF40
:1037880000540040000402400038024070B502684E
:10379800144B9A4286B023D1002403F5FE330094DB
:1037A8001A6C114842F400421A641B6C039403F427
:1037B80000430093009B049410230226062501A9C8
:1037C800019302960595FCF761FF4FF4A45301A9F4
:1037D800064801930296039404940595FCF756FF56
:1037E80006B070BD003C00400000024000080240E6
:1037F8007FB502680E4B9A4217D100230D4A0093F9
:10380800516C0D4841F480515164526C039302F499
:1038180080520092009A0493E0220192052302222A
:1038280001A902920593FCF731FF07B05DF804FB8C
:103838000030014000380240000002407047FEE7B7
:10384800FEE7FEE7FEE770477047704708B5FCF7EC
:103858007DFEBDE80840FCF714BF00000148FDF7F5
:1038680003B900BF7C0500200F49D1F8883043F424
:103878007003C1F888300D4B1A68002042F001022D
:103888001A6098601A6822F0847222F480321A60F2
:10389800074A5A601A6822F480221A60D8604FF0EA
:1038A80000638B60704700BF00ED00E00038024005
:1038B8001030002404290AD0052904D0022905D192
:1038C800044B197070470322024B1A70704701228B
:1038D800FAE700BFAC00002010B5074C07490122E9
:1038E8002046FFF7DBF820460549FFF7EEF82046AB
:1038F800BDE81040FFF71CB9B4010020BD3800082E
:10390800080000200148FFF71DB900BFB4010020DE
:1039180010B50368B3F1A04F86B02DD100244FF441
:10392800007301A91548019302940394FCF7AEFEB5
:103938004FF4E05301930223029301A90A230F488D
:10394800059303940494FCF7A1FE0D4B5A6B42F0C7
:1039580080025A6300945A6C42F480425A645B6C49
:1039680003F480430093432022462146009BFCF742
:1039780025FE4320FCF756FE06B010BD00000240AD
:1039880000380240D0F89402FFF7F9B9D0F8940251
:10399800FFF703BAD0F89402FFF712BA7047000095
:1039A80010B590F8BC33012B04461ED11048C4F85A
:1039B800C0034FF0A0430360082383600323C36060
:1039C80002220023C0F8944203618261C361FCF7BC
:1039D8008FFF18B1E2210748FFF764FE0448FDF79E
:1039E80087FB01462046FFF7C7F9002010BD00BF3E
:1039F8007C050020DF3D000808B5D0F8C003FDF7BE
:103A080041FB03289ABF024B185C022008BD00BF87
:103A1800DB3D000808B5D0F8C003FDF749FB0328D3
:103A28009ABF024B185C022008BD00BFDB3D0008AE
:103A380008B5D0F8C003FDF75EFB02289ABF024B19
:103A4800185C012008BD00BFD83D000808B5D0F8B3
:103A5800C003FDF73FFB03289ABF024B185C022006
:103A680008BD00BFDB3D0008D0F8C003FDF73BBB35
:103A78001FB5BDF8204002949DF81C4001949DF8A4
:103A880018400094D0F8C003FCF7EFFE03289ABF53
:103A9800024B185C022004B010BD00BFDB3D0008DB
:103AA80008B5D0F8C003FCF711FF03289ABF024BF2
:103AB800185C022008BD00BFDB3D00081FB59DF85B
:103AC80024400394BDF820400294079C01949DF87B
:103AD80018400094D0F8C003FCF746FF03289ABFAB
:103AE800024B185C022004B010BD00BFDB3D00088B
:103AF800D0F8C003FDF7F1BA08B590F8BC33012B34
:103B080002D1084600F016F8C820FCF731FD002065
:103B180008BDD0F8C003282303FB010191F83B300E
:103B28001BB181F850200020704781F85120FAE736
:103B3800FCF71EBDB0FA80F2520901210148FCF7DA
:103B48008BBE00BF00080240DFF834D0002103E03C
:103B58000C4B5B58435004310B480C4B42189A42AB
:103B6800F6D30B4A02E0002342F8043B094B9A4281
:103B7800F9D3FFF779FE00F011F8FFF751FC704711
:103B880000000220043E00080000002090000020F1
:103B98009000002018080020FEE7000070B50D4EC8
:103BA8000D4CA41BA4100025A54209D10B4E0C4CAA
:103BB80000F0F4F8A41BA4100025A54205D170BD9F
:103BC80056F8253098470135EEE756F825309847DE
:103BD8000135F2E7FC3D0008FC3D0008FC3D00080B
:103BE800003E0008024B0146186800F059B800BFB3
:103BF8002C000020024B0146186800F003B800BFF3
:103C08002C00002038B50546002945D051F8043C61
:103C18000C1F002BB8BFE41800F0B0F81F4A136857
:103C2800104633B9636014602846BDE8384000F098
:103C3800A6B8A3420CD921686218934204BF1A6837
:103C48005B68636004BF521822600460ECE71346A7
:103C58005A680AB1A242FAD919685818A0420BD179
:103C680020680144581882421960DDD110685268F2
:103C78005A6001441960D7E702D90C232B60D3E7B7
:103C8800206821188A4204BF11685268626004BF24
:103C9800091821605C60C7E738BD00BFB00000208C
:103CA80070B5CD1C25F0030508350C2D38BF0C2543
:103CB800002D064601DBA94203D90C2333600020FE
:103CC80070BD00F05BF8234A1468214691B9224C74
:103CD80023681BB9304600F041F820602946304679
:103CE80000F03CF8431C26D10C233360304600F02A
:103CF80046F8E4E70B685B1B1AD40B2B0FD90B6053
:103D0800CD50CC18304600F03AF804F10B00231DD2
:103D180020F00700C31A1BD05A42E25070BD8C42F3
:103D28000DBF63684B686360136018BF0C46E9E712
:103D38000C464968CAE7C41C24F00304A04205D015
:103D4800211A304600F00AF80130CDD02560D9E7B5
:103D580070BD00BFB0000020B400002038B5064C8C
:103D6800002305460846236000F00AF8431C02D1E8
:103D7800236803B12B6038BD1408002070477047D2
:103D8800044B1968024609B90349196018680244C6
:103D98001A607047B800002018080020F8B500BF66
:103DA800F8BC08BC9E467047F8B500BFF8BC08BC14
:043DB8009E4670476C
:103DBC004344430000000000000000000102030423
:103DCC0006070809000000000102030400010200BC
:103DDC000201022E2E5C5372635C757362685F6322
:083DEC006F6E662E63000000FB
:083DF40004C4FF7F0100000080
:043DFC00AD0100080D
:043E0000890100082C
:103E04000100000010000000BC3D0008020000009A
:103E14008727000825270008B1280008EB28000898
:103E240021270008000000000024F40030000020D6
:103E3400000000000000000000000000000000007E
:103E4400000000000000000000000000000000006E
:103E5400000000000000000000000000000000005E
:103E6400000000000000000000000000000000004E
:103E7400000000000000000000000000000000003E
:103E8400000000000000000000000000000000002E
:0400000508003B5163
:00000001FF
